:100000000C9434000C945D000C945D000C945D0025
:100010000C945D000C945D000C94FB030C945D004B
:100020000C945D000C945D000C945D000C943B09F5
:100030000C945D000C945D000C9499070C945D0089
:100040000C945D000C945D000C945D000C945D00BC
:100050000C945D000C945D000C945D000C945809A8
:100060000C945D000C945D0011241FBECFEFD8E00E
:10007000DEBFCDBF14BE0FB6F894A8958091600086
:10008000886180936000109260000FBE11E0A0E0D4
:10009000B1E0E8EAFEE102C005900D92A031B1079F
:1000A000D9F721E0A0E1B1E001C01D92AA39B20761
:1000B000E1F70E94F40B0C94400F0C940000809127
:1000C000950190919601892B31F4109217010E94AD
:1000D00058010C94D90281E0809317010E945801C5
:1000E0000C94D90280911701811102C00C94CF01A8
:1000F0000C94EE020F931F93CF93DF93EC018B01CF
:100100008981809316019091100120919501309181
:100110009601891769F0809310018217130601F187
:100120000E94D90290911001209195013091960181
:100130009217130659F081E080931701B801CE01A0
:10014000DF91CF911F910F910C9411031092170121
:10015000B801CE01DF91CF911F910F910C94C00295
:10016000109217010E94580184E00E94150884E152
:1001700090E00E94120480E00E9415089091100106
:100180002091950130919601D3CF80911701811173
:1001900002C00C94D5020C941203809117018111B6
:1001A00002C00C94D8020C94150390911101981779
:1001B000C9F0809311018230D1F050F4882399F076
:1001C0000E94250460919801809197010C9420046D
:1001D000833039F40E9425046091850180E00C94FD
:1001E00020040895089560E080E00C9420040E94AB
:1001F000250460E0809199010C94200480913501E0
:1002000090910301891718F41092010108959091BB
:10021000110120910201821788F48091000182303F
:10022000C9F0923051F082E0809311010E942504C0
:1002300060E0809199010C94200408959330E9F3D3
:1002400083E0809311010E9425046091850180E084
:100250000C942004923089F3809131018F5F809358
:10026000310185E10E94150884E190E00E941204AA
:1002700080E00E94150890911101D3CF9091350133
:1002800080910201981720F081E080930101089588
:1002900080911101813059F081E0809311010E9419
:1002A000250460919801809197010C942004089591
:1002B0004091950140932D0110921C0110922E0146
:1002C0001092300110923501109218012091100106
:1002D00030E0E0910001F0E0C9010196BF010E9409
:1002E000110C80933A01C90101978E0F9F1FBF0126
:1002F0000E94110C809333018150990B8E0F9F1F28
:10030000BF010E94110C80931A01109226014093A4
:100310001D0140931E018DE191E00E94550B9093C9
:100320002801809327011092310185E10E94150870
:1003300084E190E00E94120480E00E941508209160
:10034000100180919501909196012817190609F0E6
:10035000089580912F018130D9F780911101833068
:1003600051F083E0809311010E9425046091850182
:1003700080E00E94200484E00E94150880E797E155
:100380000E94120480E00E941508809111018823C8
:10039000F9F21092110160E080E00C942004809149
:1003A000180181111CC080913501882359F080917A
:1003B0001C01813009F465C080910101882329F076
:1003C000813009F008950C94FE00909135018091E0
:1003D00002019817E0F181E08093010108951092E5
:1003E000180189E291E00E94FA048093190190912A
:1003F00000019230E1F19091320120913A01309167
:100400003501831760F080913301821709F486C0AB
:100410009213CDCF8091190180933501C8CF9217E7
:1004200009F458C08093350190933A0180E10E940D
:10043000150884E190E00E94120480E00E941508F3
:100440001092340120913A0190913201DCCF8091D9
:100450001101813009F4B6CF81E0809311010E942F
:10046000250460919801809197010C94200480915B
:100470003101873008F057C09091320120913A0144
:10048000C7CF80911101882331F01092110160E0F3
:1004900080E00E94200480912E01811193CF8091F1
:1004A0002D0190E001966091000170E00E94110C16
:1004B00080932D0180931E018DE191E00E94550BE8
:1004C000909328018093270181E080932E018093EF
:1004D0002F0108952091330129139ECF80911A0195
:1004E000821398CF82E38093020190911901809149
:1004F0003001891738F590933001892F909135019B
:10050000981708F0B9CF85E00E94150884E190E0C3
:100510000E94120480E00E941508AECF80911A015B
:10052000891376CFDFCF80911101882331F01092AB
:10053000110160E080E00E94200481E080931C01B2
:1005400080E1E2CF9817D0F69335C0F28091110187
:10055000882331F01092110160E080E00E942004B5
:1005600081E080931C0180E10E94150884E190E005
:100570000E94120480E00E94150880913001BECFD5
:10058000FC0180818093320181E080931801FB019E
:1005900080819181A281B3818093290190932A0166
:1005A000A0932B01B0932C0108958DE191E0089563
:1005B0000895CF93DF9310923B01CDE1D1E01986EE
:1005C000809195018883809110018983CE010E94DA
:1005D000550B9B878A87DF91CF91089580913B01CE
:1005E000811112C080910001823009F40895809138
:1005F000100180931E018DE191E00E94550B9093B4
:10060000280180932701089510923B0181E00E9408
:10061000150884E190E00E94120480E00E94150811
:10062000E1CF08958DE191E0089581E080933B0151
:100630000895089590E080E008950895CF92DF92A4
:10064000EF92FF921F93CF93DF93F89414B817B8EB
:100650001AB815B818B81BB8529A5A9A14BC85E043
:1006600085BD8FEF87BD82E080936E001092800081
:10067000109281002FE83BE030938900209388009E
:1006800080936F005398239891EA9093B0008093E1
:10069000B1001092B4001092B3008BE080BF83E0F1
:1006A00080937F0086E080937C0083E880937A00CB
:1006B00080917A00806480937A0080917A0086FD30
:1006C000FCCF10927C0083EA80937A0081E08093D3
:1006D0007B0081E090E00E94D60E8F3F11F0809366
:1006E000660010926301C1E0C0933C01C093800199
:1006F00010925A011092940180E990E00E94D60E67
:100700008093590180915901887311F0C093590168
:1007100010928401109283018FEF90E090938201F8
:100720008093810110925F0110926001109261012B
:100730001092620181E08093150182E49FE0909322
:1007400093018093920180EB90E00E94D60EC82F17
:1007500081EB90E00E94D60ED82FD0939601C093E3
:10076000950185E090E00E94D60E8093990189E082
:1007700090E00E94D60E809385018CE090E00E946C
:10078000D60E8093970184E190E00E94D60E80936C
:10079000980184E6E82E81E0F82E9DE3C92E91E0D1
:1007A000D92EC0E2D0E0CE010E94D60E182FCE0185
:1007B00001960E94D60E912FF701819391937F01AC
:1007C000CE01C0960E94D60E182FCE01C1960E946F
:1007D000D60E912FF601819391936F012296CC331F
:1007E000D10509F77894DF91CF911F91FF90EF9099
:1007F000DF90CF9008950F920FB60F921F921124A1
:100800008F930FB6F894A8958091600088618093CB
:100810006000109260000FBE8F911F900F900FBE6E
:100820000F9018959C012115310509F408958FEC5E
:1008300097E00197F1F700C0000021503109F3CF94
:100840008093B3006093B40008958FEF8093B3005A
:100850008093B4008FE090E00C94120480916301C7
:1008600081111EC0F89487E080937C0083E8809318
:100870007A0080917A00806480937A0080917A0077
:1008800086FDFCCF809178009091790010927C00D9
:1008900023EA20937A0021E020937B007894089546
:1008A0008FEF9FEF08958091630181111EC0F8942E
:1008B00088EC80937C0087E880937A0080917A00AE
:1008C000806480937A0080917A0086FDFCCF8091CD
:1008D00078009091790010927C0023EA20937A00AE
:1008E00021E020937B00789408958FEF9FEF089587
:1008F000CF93DF9330E020E080E0E6E0F3E8C3EA66
:10090000D1E0A1E0B0E090E8F894E0937C00F093AF
:100910007A0040917A00406440937A0040917A00D6
:1009200046FDFCCF40917800509179004170509184
:100930007A00506450937A0050917A0056FDFCCFB3
:10094000609178007091790010927C00C0937A00D9
:10095000D0937B0078946170461302C09150A1F649
:10096000442339F0AD01022E01C0440F0A94EAF786
:10097000842B2F5F3F4F2830310529F6DF91CF912F
:1009800008958091040198E0899F90011124982F87
:1009900092272091120181E0820F80931201892F0A
:1009A000829586958770892726952695822780933C
:1009B00004010895809304010895809163018111D9
:1009C00016C0F89486E080937C0083E880937A00D8
:1009D00080917A00806480937A0080917A0086FD0D
:1009E000FCCF8091780090917900789408958FEFF2
:1009F0009FEF08953F924F925F926F927F928F92F6
:100A00009F92AF92BF92CF92DF92EF92FF920F939D
:100A10001F93CF93DF9300D000D000D00F92CDB7BB
:100A2000DEB77C01DC0112960D911C910438B3E015
:100A30001B070CF0B6C180913D0190913E018017DB
:100A4000910708F4ACC1EFE3F1E021E02D8381913F
:100A500091918017910738F03D813F5F3D833E3093
:100A6000B1F74DE04D835D81852F90E0FC01EE0FE5
:100A7000FF1FE35CFE4FC080D180880F991FFC01EF
:100A8000E55CFE4F80819181D601A81BB90B9D01C9
:100A900050E040E029833A834B835C83CA01BD0167
:100AA0000E94630D9B01AC0169837A838B839C83D5
:100AB00069817A818B819C810E944F0C4B015C0182
:100AC000C801012E000CAA0BBB0B89839A83AB8350
:100AD000BC83BC01CD010E94650D562E672E782E79
:100AE0009E83960150E040E029833A834B835C83E8
:100AF000CA01B6010E94630D362E472E6C019D81FE
:100B0000892F90E0B0E0A0E089839A83AB83BC8317
:100B1000BC01CD010E94630D20E030E040E05FE3C6
:100B200069837A838B839C8369817A818B819C81A1
:100B30000E94F10D20E030E0A90169837A838B8364
:100B40009C8369817A818B819C810E944F0C9401E6
:100B5000A50169837A838B839C8369817A818B81E8
:100B60009C810E94F10D9B01AC0139824A82CB82AB
:100B7000DC8269817A818B819C810E944E0C9B0171
:100B8000AC0159826A827B82AE81AC8369817A81B1
:100B90008B819C810E944E0C20E030E040E251E4C9
:100BA00069837A838B839C8369817A818B819C8121
:100BB0000E94F10D69837A838B839C8369817A819A
:100BC0008B819C810E942D0D6E837F8389829A8206
:100BD000AB82BC8269817A818B819C810E942D0DC0
:100BE00069837A838B839C838E819F8169817A81DB
:100BF0000E94110C6D830D3BB2E01B070CF497C1F2
:100C0000D701CD90DC9080916401909165018C15A5
:100C10009D0508F4C9C0E6E6F1E081E090E0882E89
:100C2000E190F190EC14FD0408F4C3C001968E30FD
:100C30009105A9F7BAE5BE83ED81EF3F09F4B6C08F
:100C40009801110F440B550B29833A834B835C8326
:100C5000CA01B9010E94650D7B018C019D81892F1C
:100C600090E0B0E0A0E089839A83AB83BC83BC01B1
:100C7000CD010E94630DB62EC72ED82E9D839701FD
:100C8000A80160E070E081E694E40E944E0C9B01B4
:100C9000AC01B982CA82DB82AD81AC8369817A8181
:100CA0008B819C810E94F10DB62EC72ED82E9D837C
:100CB0003E81232F30E050E040E029833A834B838C
:100CC0005C83CA01B9010E94630D4B01A82E9E836B
:100CD00020E030E04FE254E4E982FA820B831C8387
:100CE00069817A818B819C810E944E0C9B01AC01B1
:100CF00089829A82AB828E818C8369817A818B8191
:100D00009C810E94F10D9B01AC01B982CA82DB82F9
:100D10009D819C8369817A818B819C810E944F0C8B
:100D200020E030E048E453E469837A838B839C833A
:100D300069817A818B819C810E94BB0C20E030E02C
:100D400044E052E469837A838B839C8369817A814E
:100D50008B819C810E944F0C69837A838B839C8357
:100D600069817A818B819C810E94340D862F279620
:100D70000FB6F894DEBF0FBECDBFDF91CF911F91AC
:100D80000F91FF90EF90DF90CF90BF90AF909F902A
:100D90008F907F906F905F904F903F9008951D824D
:100DA0002ACFEFEFED832CCF1E8246CF8E818F5D51
:100DB000DECF880F991FFC01EE59FE4F8081918193
:100DC000D701A81BB90B9D0150E040E029833A836D
:100DD0004B835C83CA01BD010E94630D9B01AC0182
:100DE00069837A838B839C8369817A818B819C81DF
:100DF0000E944F0C962EA72EB82E9E83C601DD0CA6
:100E0000AA0BBB0B89839A83AB83BC83BC01CD0146
:100E10000E94650D3B016C01970150E040E0298381
:100E20003A834B835C83CA01B7010E94630D2B0197
:100E30007C01882D90E0B0E0A0E089839A83AB83A9
:100E4000BC83BC01CD010E94630D20E030E040E096
:100E50005FE369837A838B839C8369817A818B8149
:100E60009C810E94F10D20E030E0A90169837A8322
:100E70008B839C8369817A818B819C810E944F0C3A
:100E8000292D3A2D4B2D5E8169837A838B839C8338
:100E900069817A818B819C810E94F10D9B01AC015B
:100EA00049825A82EB82FC8269817A818B819C81A2
:100EB0000E944E0C9B01AC0169827A82CB82DC825B
:100EC00069817A818B819C810E944E0C20E030E008
:100ED00040E251E469837A838B839C8369817A81C0
:100EE0008B819C810E94F10D69837A838B839C8323
:100EF00069817A818B819C810E942D0D7B01998271
:100F0000AA82BB829E819C8369817A818B819C812C
:100F10000E942D0D69837A838B839C83C70169812D
:100F20007A810E94110C6E836F3F09F085CE8D810E
:100F30003ECF1F920F920FB60F9211242F933F9323
:100F40004F935F936F937F938F939F93AF93BF93D1
:100F5000EF93FF938091830190918401209181010F
:100F600030918201820F931F9093840180938301BB
:100F70008FEF90E090938201809381018FEF87BD86
:100F800080915F0190916001A0916101B091620137
:100F90000196A11DB11D80935F0190936001A09304
:100FA0006101B093620180916301811123C080913E
:100FB00092019091930120918301309184018217D5
:100FC0009307C0F4809115018430A1F4E0910701EA
:100FD000F09108010995009769F00E94710B882330
:100FE000D1F0E0910501F09106010995109284017C
:100FF00010928301FF91EF91BF91AF919F918F91DB
:101000007F916F915F914F913F912F910F900FBE04
:101010000F901F9018950E94C60E9C0199279093DF
:1010200082018093810127BDE5CF80FF11C0559AD1
:1010300081FF10C0549A82FF0FC03B9A83FF0EC0FD
:101040003A9A84FF0DC03D9A85FF0CC03C9A0895E2
:101050005598EECF5498EFCF3B98F0CF3A98F1CF18
:101060003D98F2CF3C9808958C017B01D0E0CFEF02
:1010700084E0D82E98E1C92E29E2B22EE091150124
:10108000E730E0F7F0E0EE5BF04F0C94250CF894BD
:1010900080B7877F80BF80917A008F7780937A00B6
:1010A00014B817B81AB815B818B81BB80FB6F89412
:1010B000A895C09260000FBEB09260008091600061
:1010C00080648093600083B7817F846083BFF894DD
:1010D00083B7816083BF7894889583B78E7F83BF01
:1010E000789410926301529A5A9A80917A0080689B
:1010F00080937A0087E592E00197F1F700C0000045
:1011000080B7886180BF8FE30E941508EFE1FEE49D
:101110003197F1F700C0000080916301882361F0EE
:1011200083E00E941508FFEF20E782E0F1502040A5
:101130008040E1F700C0000080E01EC08CE00E940B
:101140001508EFECF7E03197F1F700C0000080E000
:101150000E941508FFEF21EE84E0F150204080400E
:10116000E1F700C000008ACF0E94DD049C012B3A09
:1011700092E0390724F08CE00E9415087FCF80E3CD
:101180002938E2E03E07C4F78FE027363240A4F763
:1011900083E0F2CF4899D0CF81E00E9415088FEC10
:1011A00097E00197F1F700C0000080E00E94150869
:1011B0009FEFE1EEF4E09150E040F040E1F7D1CF55
:1011C000D11102C0F8010995D0921501D1E0F701C3
:1011D000099554CF80911301811107C01092B3007B
:1011E0001092B4001092140149CF90911301809194
:1011F0001401981709F442CF8091130180931401D0
:1012000080911301813089F4C093B3001092B4002F
:101210008FE295E70197F1F700C0000080919901F6
:101220008093B3001092B40029CF809113011092E3
:10123000B300C093B400823069F4EFE2F5E7319770
:10124000F1F700C00000809185011092B3008093F7
:10125000B40014CFC093B300C093B4008FE295E7FD
:101260000197F1F700C000008091980190919701DB
:101270009093B300ECCF8F931F9280E0182E9F9332
:1012800010928100109285001092840081E080937A
:101290003C01809380011092630110927C0093EADC
:1012A00090937A0080937B009F911F908F91189567
:1012B0001F920F920FB60F9211240F931F932F932B
:1012C0003F934F935F936F937F938F939F93AF93CE
:1012D000BF93EF93FF93CF93DF9300D000D0CDB7B0
:1012E000DEB7209184003091850041E04093630196
:1012F00080913C018823D9F11092850010928400DE
:10130000409381001092940110923C0180918001E1
:101310008823A1F080917A0086FDFCCF809178002F
:101320009091790090935E0180935D0181E08093BC
:101330007C0093EA90937A0080937B000F900F904B
:101340000F900F90DF91CF91FF91EF91BF91AF91EF
:101350009F918F917F916F915F914F913F912F91CD
:101360001F910F910F900FBE0F901F901895C901FC
:101370008758910984379940A0F01092810010920B
:1013800085001092840040933C01409380011092AC
:10139000630110927C0083EA80937A0040937B0083
:1013A000CDCF26583109A4EFB0E00E942B0C698301
:1013B0007A838B839C838C0122273327883068F4BF
:1013C00081E090E09C0101C0220F0A95EAF780912C
:1013D0009401822B80939401B1CF40933C01809182
:1013E0008001882341F180917A0086FDFCCF8091B5
:1013F00078009091790090935C0180935B0110924A
:101400007C0083EA80937A0081E080937B00909156
:101410009401992359F01092810010928500109246
:101420008400809380011092630188CF1092800124
:1014300010925A0183CF80915A01E82FF0E0EA57C9
:10144000FE4F9091940190838F5F80935A018C306E
:1014500009F074CF109281001092850010928400E0
:1014600040938001109263018091900190919101CD
:101470009A83898386E891E00E94550BA981BA81FD
:10148000A817B90709F05ACFE0918F01E7FD0AC00C
:10149000E0910901F0910A016BE571E086E891E0C5
:1014A00009954CCF88E78E0F833030F053982398FE
:1014B0001092B4001092B300E058EB3008F03ECF29
:1014C000F0E0E75BF04F0C94250C80916E008D7F6F
:1014D00080936E0016BCE0E0F0E70995F0E0E0E0F4
:1014E000FCCF109215012ACF81E08093150126CF01
:1014F00085E0FBCF82E0F9CF80911501833009F4BC
:101500001DCF80911501843009F418CF539A239A86
:101510001092B4001092B30083E0E7CF809186016F
:10152000823009F457C0A0F5811149C0809115019E
:10153000863099F56091950180EB90E00E94DE0E77
:101540006091960181EB90E00E94DE0E609199011E
:1015500085E090E00E94DE0E6091850189E090E0D8
:101560000E94DE0E609197018CE090E00E94DE0EFA
:101570006091980184E190E00E94DE0E53982398D8
:101580001092B4001092B30081E08093150105C061
:10159000833091F1843009F441C080918601882321
:1015A00009F4CCCE80911501863009F4C7CE539A48
:1015B000239A1092B4001092B30086E096CF8091E7
:1015C00087019091880190939601809395011092E4
:1015D0001301E3CF9091130180918901913021F49F
:1015E000909199019817C9F21092140191E090938B
:1015F000130180939901D1CF9091130180918A01B9
:10160000923021F490918501981739F210921401CB
:1016100092E09093130180938501BFCF2091130135
:1016200080918C0190918B01233049F42091980195
:10163000281305C020919701291709F4AECF109205
:10164000140123E020931301909397018093980154
:10165000A4CF80911501863081F0539A239A10927D
:10166000B4001092B30080E00E941508109213019C
:101670001092140186E0809315012091860181E08B
:1016800090E002C0880F991F2A95E2F720919501FA
:101690003091960182239323892B21F081E080935E
:1016A00013014CCE1092130149CEFC019C01265F20
:1016B0003F4F8FEF9FEF41918427082E8295807FC7
:1016C0008025092E982F82958F7008268695982759
:1016D0008927880F880F880F8025E217F30759F7AD
:1016E00008950FB6F894A4B1209159012A2B24B97A
:1016F00021E030915901203029F0000025B1232B41
:1017000025B904C000000000000000C00000000077
:101710000000309525B1232325B92EEA2A95F1F74B
:101720002BEE30B735FF0AC0A4B93091590130957E
:1017300025B1232325B90FBE80E0089500002A9526
:1017400081F721E030915901203029F0000025B1C6
:10175000232B25B904C000000000000000C00000D9
:1017600000000000309525B1232325B9000024E5B1
:101770002A95F1F7FC018CE0619170E0660F771F0C
:10178000616072609AE041E050E09A0126233723BD
:10179000232B30915901203029F0000025B1232B53
:1017A00025B904C000000000000000C000000000D7
:1017B0000000309525B1232325B9000021E52A95A5
:1017C000F1F7440F551F9A9501F78A95A9F620B7AE
:1017D000206120BFA4B930915901309525B1232350
:1017E00025B90FBE81E008950E941E038AE790E0AC
:1017F00090930A018093090185EC90E09093080191
:10180000809307018DEC90E0909306018093050191
:1018100062E770E08FE590E00E94340890E080E09D
:10182000089597FB072E16F4009407D077FD09D092
:101830000E943A0C07FC05D03EF4909581959F4F8D
:101840000895709561957F4F0895EE0FFF1F0590E5
:10185000F491E02D0994A29FB001B39FC001A39F12
:10186000700D811D1124911DB29F700D811D1124D9
:10187000911D0895AA1BBB1B51E107C0AA1FBB1FE6
:10188000A617B70710F0A61BB70B881F991F5A950C
:10189000A9F780959095BC01CD0108955058BB27BC
:1018A000AA270E94660C0C94B70D0E94A90D38F06F
:1018B0000E94B00D20F039F49F3F19F426F40C94E7
:1018C000A60D0EF4E095E7FB0C94A00DE92F0E9405
:1018D000C80D58F3BA17620773078407950720F0FD
:1018E00079F4A6F50C94EA0D0EF4E0950B2EBA2FC0
:1018F000A02D0B01B90190010C01CA01A001112416
:10190000FF27591B99F0593F50F4503E68F11A16C1
:10191000F040A22F232F342F4427585FF3CF469552
:1019200037952795A795F0405395C9F77EF41F1674
:10193000BA0B620B730B840BBAF09150A1F0FF0F3E
:10194000BB1F661F771F881FC2F70EC0BA0F621F2A
:10195000731F841F48F4879577956795B795F7951A
:101960009E3F08F0B0CF9395880F08F09927EE0FAF
:101970009795879508950E94CF0C0C94B70D0E94FF
:10198000B00D58F00E94A90D40F029F45F3F29F0F6
:101990000C94A00D51110C94EB0D0C94A60D0E940B
:1019A000C80D68F39923B1F3552391F3951B550B9B
:1019B000BB27AA2762177307840738F09F5F5F4F22
:1019C000220F331F441FAA1FA9F335D00E2E3AF061
:1019D000E0E832D091505040E695001CCAF72BD079
:1019E000FE2F29D0660F771F881FBB1F26173707CA
:1019F0004807AB07B0E809F0BB0B802DBF01FF27FC
:101A000093585F4F3AF09E3F510578F00C94A00D2B
:101A10000C94EB0D5F3FE4F3983ED4F386957795F5
:101A20006795B795F7959F5FC9F7880F911D9695B4
:101A3000879597F90895E1E0660F771F881FBB1F10
:101A4000621773078407BA0720F0621B730B840BBD
:101A5000BA0BEE1F88F7E09508950E94340D689444
:101A6000B1110C94EB0D08950E94D00D88F09F5792
:101A700098F0B92F9927B751B0F0E1F0660F771FB2
:101A8000881F991F1AF0BA95C9F714C0B13091F0A8
:101A90000E94EA0DB1E008950C94EA0D672F782FAB
:101AA0008827B85F39F0B93FCCF38695779567956D
:101AB000B395D9F73EF490958095709561957F4FD9
:101AC0008F4F9F4F0895E89409C097FB3EF490957F
:101AD0008095709561957F4F8F4F9F4F9923A9F007
:101AE000F92F96E9BB279395F69587957795679596
:101AF000B795F111F8CFFAF4BB0F11F460FF1BC0DA
:101B00006F5F7F4F8F4F9F4F16C0882311F096E96C
:101B100011C0772321F09EE8872F762F05C066231A
:101B200071F096E8862F70E060E02AF09A95660FD3
:101B3000771F881FDAF7880F9695879597F908958C
:101B400097F99F6780E870E060E008959FEF80EC70
:101B5000089500240A941616170618060906089513
:101B600000240A9412161306140605060895092E79
:101B70000394000C11F4882352F0BB0F40F4BF2BE8
:101B800011F460FF04C06F5F7F4F8F4F9F4F089528
:101B900057FD9058440F551F59F05F3F71F047951E
:101BA000880F97FB991F61F09F3F79F08795089503
:101BB000121613061406551FF2CF4695F1DF08C022
:101BC000161617061806991FF1CF8695710561053F
:101BD00008940895E894BB2766277727CB0197F9E7
:101BE00008950E94040E0C94B70D0E94A90D38F0C0
:101BF0000E94B00D20F0952311F00C94A00D0C94D0
:101C0000A60D11240C94EB0D0E94C80D70F3959F46
:101C1000C1F3950F50E0551F629FF001729FBB27E3
:101C2000F00DB11D639FAA27F00DB11DAA1F649F7F
:101C30006627B00DA11D661F829F2227B00DA11D32
:101C4000621F739FB00DA11D621F839FA00D611DB8
:101C5000221F749F3327A00D611D231F849F600DD9
:101C6000211D822F762F6A2F11249F5750409AF002
:101C7000F1F088234AF0EE0FFF1FBB1F661F771F8E
:101C8000881F91505040A9F79E3F510580F00C9459
:101C9000A00D0C94EB0D5F3FE4F3983ED4F38695D2
:101CA00077956795B795F795E7959F5FC1F7FE2BF9
:101CB000880F911D9695879597F90895CF92DF9299
:101CC000EF92FF92CF93DF93CDB7DEB72A970FB68F
:101CD000F894DEBF0FBECDBF89879A87A985BA85E4
:101CE0002D913D914D915C9129833A834B835C8387
:101CF000232B242B252B41F424E239ED4BE557E02F
:101D000029833A834B835C8369817A818B819C81AF
:101D10002DE133EF41E050E00E94EC0E69017A01C1
:101D2000A7EAB1E49B01AC010E940B0F69837A839F
:101D30008B839C83ACEEB4EFA70196010E94190F30
:101D40009B01AC0189819A81AB81BC81820F931F79
:101D5000A41FB51FB7FF03C00197A109B048E985CB
:101D6000FA8580839183A283B3839F772A960FB6E7
:101D7000F894DEBF0FBECDBFDF91CF91FF90EF9003
:101D8000DF90CF9008950E945E0E08958BE091E061
:101D90000E945E0E0895B0E0A0E080930B01909346
:101DA0000C01A0930D01B0930E010895F999FECF97
:101DB00092BD81BDF89A992780B50895262FF9998B
:101DC000FECF1FBA92BD81BD20BD0FB6F894FA9A1E
:101DD000F99A0FBE01960895052E97FB1EF4009404
:101DE0000E94030F57FD07D00E941E0F07FC03D06F
:101DF0004EF40C94030F50954095309521953F4F2C
:101E00004F4F5F4F089590958095709561957F4FE6
:101E10008F4F9F4F08950E942B0CA59F900DB49F4C
:101E2000900DA49F800D911D11240895B7FF0C946F
:101E30000B0F0E940B0F821B930B0895A1E21A2E29
:101E4000AA1BBB1BFD010DC0AA1FBB1FEE1FFF1F5E
:101E5000A217B307E407F50720F0A21BB30BE40BAE
:101E6000F50B661F771F881F991F1A9469F76095F5
:101E70007095809590959B01AC01BD01CF010895AF
:101E8000F894FFCF47089E08B408E008E708CA089E
:101E9000EA08650A9E099E096E0A710A740A780AA0
:081EA0007A0A7C0A290B8E0A64
:101EA80004013C28AA1D031A0319030100000000BD
:00000001FF
