:100000000C9434000C945D000C945D000C945D0025
:100010000C945D000C945D000C9403020C945D0044
:100020000C945D000C945D000C945D000C944307EF
:100030000C945D000C945D000C94A1050C945D0083
:100040000C945D000C945D000C945D000C945D00BC
:100050000C945D000C945D000C945D000C946007A2
:100060000C945D000C945D0011241FBECFEFD8E00E
:10007000DEBFCDBF14BE0FB6F894A8958091600086
:10008000886180936000109260000FBE11E0A0E0D4
:10009000B1E0E8EBFAE102C005900D92AE30B10795
:1000A000D9F721E0AEE0B1E001C01D92A838B20757
:1000B000E1F70E94FC090C94480D0C9400008BE1C0
:1000C00091E0089581E0809328010895FC018081EA
:1000D0008093290181E090E090930F0180930E01BD
:1000E000FB0180819181A281B3818093170190935C
:1000F0001801A0931901B0931A0187E291E00E94C0
:1001000002038093270108951092240180918301B6
:1001100080931B018BE191E00E945D099093260181
:10012000809325018091830190918401029709F0C9
:100130000895809112018130D9F381E080931201FA
:100140000E942D0260918601809185010C94280205
:100150008091280181113CC020910201809183018E
:10016000909184012817190609F0089580912701BC
:10017000909129019130C9F1809310018091110172
:100180004091010150E02091000130E090E0841B9B
:10019000950B97FF03C0919581959109821793075D
:1001A00024F78091100190E0841B950B97FF03C00A
:1001B00091958195910982179307BCF68091120160
:1001C000882399F21092120160E080E00C942802DA
:1001D0001092280181E00E941D0684E190E00E94B7
:1001E0001A0280E00E941D06B7CF80931101C8CF8C
:1001F000909112019817C9F0809312018230D1F0CA
:1002000050F4882399F00E942D026091860180911C
:1002100085010C942802833039F40E942D026091EC
:10022000730180E00C9428020895089560E080E056
:100230000C9428020E942D0260E0809187010C94AA
:100240002802089590E080E008950895CF92DF920B
:10025000EF92FF921F93CF93DF93F89414B817B8DF
:100260001AB815B818B81BB8529A5A9A14BC85E037
:1002700085BD8FEF87BD82E080936E001092800075
:10028000109281002FE83BE0309389002093880092
:1002900080936F005398239891EA9093B0008093D5
:1002A000B1001092B4001092B3008BE080BF83E0E5
:1002B00080937F0086E080937C0083E880937A00BF
:1002C00080917A00806480937A0080917A0086FD24
:1002D000FCCF10927C0083EA80937A0081E08093C7
:1002E0007B0081E090E00E94DE0C8F3F11F0809354
:1002F000660010925101C1E0C0932A01C0936E01C3
:10030000109248011092820180E990E00E94DE0C78
:100310008093470180914701887311F0C093470192
:1003200010927201109271018FEF90E09093700122
:1003300080936F0110924D0110924E0110924F0167
:100340001092500181E08093160182E49FE0909327
:1003500081018093800180EB90E00E94DE0CC82F29
:1003600081EB90E00E94DE0CD82FD0938401C093E3
:10037000830185E090E00E94DE0C8093870189E094
:1003800090E00E94DE0C809373018CE090E00E946C
:10039000DE0C8093850184E190E00E94DE0C809366
:1003A000860182E5E82E81E0F82E9BE2C92E91E0DD
:1003B000D92EC0E2D0E0CE010E94DE0C182FCE0173
:1003C00001960E94DE0C912FF701819391937F019A
:1003D000CE01C0960E94DE0C182FCE01C1960E945D
:1003E000DE0C912FF601819391936F012296CC330D
:1003F000D10509F77894DF91CF911F91FF90EF908D
:10040000DF90CF9008950F920FB60F921F92112494
:100410008F930FB6F894A8958091600088618093BF
:100420006000109260000FBE8F911F900F900FBE62
:100430000F9018959C012115310509F408958FEC52
:1004400097E00197F1F700C0000021503109F3CF88
:100450008093B3006093B40008958FEF8093B3004E
:100460008093B4008FE090E00C941A0280915101C7
:1004700081111EC0F89487E080937C0083E880930C
:100480007A0080917A00806480937A0080917A006B
:1004900086FDFCCF809178009091790010927C00CD
:1004A00023EA20937A0021E020937B00789408953A
:1004B0008FEF9FEF08958091510181111EC0F89434
:1004C00088EC80937C0087E880937A0080917A00A2
:1004D000806480937A0080917A0086FDFCCF8091C1
:1004E00078009091790010927C0023EA20937A00A2
:1004F00021E020937B00789408958FEF9FEF08957B
:10050000CF93DF9330E020E080E0E6E0F3E8C3EA59
:10051000D1E0A1E0B0E090E8F894E0937C00F093A3
:100520007A0040917A00406440937A0040917A00CA
:1005300046FDFCCF40917800509179004170509178
:100540007A00506450937A0050917A0056FDFCCFA7
:10055000609178007091790010927C00C0937A00CD
:10056000D0937B0078946170461302C09150A1F63D
:10057000442339F0AD01022E01C0440F0A94EAF77A
:10058000842B2F5F3F4F2830310529F6DF91CF9123
:1005900008958091030198E0899F90011124982F7C
:1005A00092272091130181E0820F80931301892FFC
:1005B0008295869587708927269526958227809330
:1005C00003010895809303010895809151018111E1
:1005D00016C0F89486E080937C0083E880937A00CC
:1005E00080917A00806480937A0080917A0086FD01
:1005F000FCCF8091780090917900789408958FEFE6
:100600009FEF08953F924F925F926F927F928F92E9
:100610009F92AF92BF92CF92DF92EF92FF920F9391
:100620001F93CF93DF9300D000D000D00F92CDB7AF
:10063000DEB77C01DC0112960D911C910438B3E009
:100640001B070CF0B6C180912B0190912C018017F3
:10065000910708F4ACC1EDE2F1E021E02D83819136
:1006600091918017910738F03D813F5F3D833E3087
:10067000B1F74DE04D835D81852F90E0FC01EE0FD9
:10068000FF1FE55DFE4FC080D180880F991FFC01E0
:10069000E75DFE4F80819181D601A81BB90B9D01BA
:1006A00050E040E029833A834B835C83CA01BD015B
:1006B0000E946B0B9B01AC0169837A838B839C83C3
:1006C00069817A818B819C810E94570A4B015C0170
:1006D000C801012E000CAA0BBB0B89839A83AB8344
:1006E000BC83BC01CD010E946D0B562E672E782E67
:1006F0009E83960150E040E029833A834B835C83DC
:10070000CA01B6010E946B0B362E472E6C019D81EB
:10071000892F90E0B0E0A0E089839A83AB83BC830B
:10072000BC01CD010E946B0B20E030E040E05FE3B4
:1007300069837A838B839C8369817A818B819C8195
:100740000E94F90B20E030E0A90169837A838B8352
:100750009C8369817A818B819C810E94570A9401D4
:10076000A50169837A838B839C8369817A818B81DC
:100770009C810E94F90B9B01AC0139824A82CB8299
:10078000DC8269817A818B819C810E94560A9B015F
:10079000AC0159826A827B82AE81AC8369817A81A5
:1007A0008B819C810E94560A20E030E040E251E4B7
:1007B00069837A838B839C8369817A818B819C8115
:1007C0000E94F90B69837A838B839C8369817A8188
:1007D0008B819C810E94350B6E837F8389829A82F4
:1007E000AB82BC8269817A818B819C810E94350BAE
:1007F00069837A838B839C838E819F8169817A81CF
:100800000E94190A6D830D3BB2E01B070CF497C1DF
:10081000D701CD90DC9080915201909153018C15BD
:100820009D0508F4C9C0E4E5F1E081E090E0882E80
:10083000E190F190EC14FD0408F4C3C001968E30F1
:100840009105A9F7BAE5BE83ED81EF3F09F4B6C083
:100850009801110F440B550B29833A834B835C831A
:10086000CA01B9010E946D0B7B018C019D81892F0A
:1008700090E0B0E0A0E089839A83AB83BC83BC01A5
:10088000CD010E946B0BB62EC72ED82E9D839701EB
:10089000A80160E070E081E694E40E94560A9B01A2
:1008A000AC01B982CA82DB82AD81AC8369817A8175
:1008B0008B819C810E94F90BB62EC72ED82E9D836A
:1008C0003E81232F30E050E040E029833A834B8380
:1008D0005C83CA01B9010E946B0B4B01A82E9E8359
:1008E00020E030E04FE254E4E982FA820B831C837B
:1008F00069817A818B819C810E94560A9B01AC019F
:1009000089829A82AB828E818C8369817A818B8184
:100910009C810E94F90B9B01AC01B982CA82DB82E7
:100920009D819C8369817A818B819C810E94570A79
:1009300020E030E048E453E469837A838B839C832E
:1009400069817A818B819C810E94C30A20E030E01A
:1009500044E052E469837A838B839C8369817A8142
:100960008B819C810E94570A69837A838B839C8345
:1009700069817A818B819C810E943C0B862F27960E
:100980000FB6F894DEBF0FBECDBFDF91CF911F91A0
:100990000F91FF90EF90DF90CF90BF90AF909F901E
:1009A0008F907F906F905F904F903F9008951D8241
:1009B0002ACFEFEFED832CCF1E8246CF8E818F5D45
:1009C000DECF880F991FFC01E05BFE4F8081918193
:1009D000D701A81BB90B9D0150E040E029833A8361
:1009E0004B835C83CA01BD010E946B0B9B01AC0170
:1009F00069837A838B839C8369817A818B819C81D3
:100A00000E94570A962EA72EB82E9E83C601DD0C93
:100A1000AA0BBB0B89839A83AB83BC83BC01CD013A
:100A20000E946D0B3B016C01970150E040E029836F
:100A30003A834B835C83CA01B7010E946B0B2B0185
:100A40007C01882D90E0B0E0A0E089839A83AB839D
:100A5000BC83BC01CD010E946B0B20E030E040E084
:100A60005FE369837A838B839C8369817A818B813D
:100A70009C810E94F90B20E030E0A90169837A8310
:100A80008B839C8369817A818B819C810E94570A28
:100A9000292D3A2D4B2D5E8169837A838B839C832C
:100AA00069817A818B819C810E94F90B9B01AC0149
:100AB00049825A82EB82FC8269817A818B819C8196
:100AC0000E94560A9B01AC0169827A82CB82DC8249
:100AD00069817A818B819C810E94560A20E030E0F6
:100AE00040E251E469837A838B839C8369817A81B4
:100AF0008B819C810E94F90B69837A838B839C8311
:100B000069817A818B819C810E94350B7B0199825E
:100B1000AA82BB829E819C8369817A818B819C8120
:100B20000E94350B69837A838B839C83C70169811B
:100B30007A810E94190A6E836F3F09F085CE8D81FC
:100B40003ECF1F920F920FB60F9211242F933F9317
:100B50004F935F936F937F938F939F93AF93BF93C5
:100B6000EF93FF93809171019091720120916F0139
:100B700030917001820F931F9093720180937101E5
:100B80008FEF90E09093700180936F018FEF87BD9E
:100B900080914D0190914E01A0914F01B091500173
:100BA0000196A11DB11D80934D0190934E01A0931C
:100BB0004F01B093500180915101811123C0809168
:100BC0008001909181012091710130917201821711
:100BD0009307C0F4809116018430A1F4E0910601DE
:100BE000F09107010995009769F00E94790988231F
:100BF000D1F0E0910401F091050109951092720184
:100C000010927101FF91EF91BF91AF919F918F91E0
:100C10007F916F915F914F913F912F910F900FBEF8
:100C20000F901F9018950E94CE0C9C0199279093CD
:100C3000700180936F0127BDE5CF80FF11C0559AE9
:100C400081FF10C0549A82FF0FC03B9A83FF0EC0F1
:100C50003A9A84FF0DC03D9A85FF0CC03C9A0895D6
:100C60005598EECF5498EFCF3B98F0CF3A98F1CF0C
:100C70003D98F2CF3C9808958C017B01D0E0CFEFF6
:100C800084E0D82E98E1C92E29E2B22EE091160117
:100C9000E730E0F7F0E0E65BF24F0C942D0AF894B1
:100CA00080B7877F80BF80917A008F7780937A00AA
:100CB00014B817B81AB815B818B81BB80FB6F89406
:100CC000A895C09260000FBEB09260008091600055
:100CD00080648093600083B7817F846083BFF894D1
:100CE00083B7816083BF7894889583B78E7F83BFF5
:100CF000789410925101529A5A9A80917A008068A1
:100D000080937A0087E592E00197F1F700C0000038
:100D100080B7886180BF8FE30E941D06EFE1FEE48B
:100D20003197F1F700C0000080915101882361F0F4
:100D300083E00E941D06FFEF20E782E0F150204093
:100D40008040E1F700C0000080E01EC08CE00E94FF
:100D50001D06EFECF7E03197F1F700C0000080E0EE
:100D60000E941D06FFEF21EE84E0F15020408040FC
:100D7000E1F700C000008ACF0E94E5029C012B3AF7
:100D800092E0390724F08CE00E941D067FCF80E3BB
:100D90002938E2E03E07C4F78FE027363240A4F757
:100DA00083E0F2CF4899D0CF81E00E941D068FECFE
:100DB00097E00197F1F700C0000080E00E941D0657
:100DC0009FEFE1EEF4E09150E040F040E1F7D1CF49
:100DD000D11102C0F8010995D0921601D1E0F701B6
:100DE000099554CF80911401811107C01092B3006E
:100DF0001092B4001092150149CF90911401809186
:100E00001501981709F442CF8091140180931501C0
:100E100080911401813089F4C093B3001092B40022
:100E20008FE295E70197F1F700C0000080918701FC
:100E30008093B3001092B40029CF809114011092D6
:100E4000B300C093B400823069F4EFE2F5E7319764
:100E5000F1F700C00000809173011092B3008093FD
:100E6000B40014CFC093B300C093B4008FE295E7F1
:100E70000197F1F700C000008091860190918501F3
:100E80009093B300ECCF8F931F9280E0182E9F9326
:100E900010928100109285001092840081E080936E
:100EA0002A0180936E011092510110927C0093EA06
:100EB00090937A0080937B009F911F908F9118955B
:100EC0001F920F920FB60F9211240F931F932F931F
:100ED0003F934F935F936F937F938F939F93AF93C2
:100EE000BF93EF93FF93CF93DF9300D000D0CDB7A4
:100EF000DEB7209184003091850041E0409351019C
:100F000080912A018823D9F11092850010928400E3
:100F1000409381001092820110922A0180916E010B
:100F20008823A1F080917A0086FDFCCF8091780023
:100F30009091790090934C0180934B0181E08093D4
:100F40007C0093EA90937A0080937B000F900F903F
:100F50000F900F90DF91CF91FF91EF91BF91AF91E3
:100F60009F918F917F916F915F914F913F912F91C1
:100F70001F910F910F900FBE0F901F901895C901F0
:100F80008758910984379940A0F0109281001092FF
:100F900085001092840040932A0140936E011092C4
:100FA000510110927C0083EA80937A0040937B0089
:100FB000CDCF26583109A4EFB0E00E94330A6983EF
:100FC0007A838B839C838C0122273327883068F4B3
:100FD00081E090E09C0101C0220F0A95EAF7809120
:100FE0008201822B80938201B1CF40932A018091AC
:100FF0006E01882341F180917A0086FDFCCF8091BB
:1010000078009091790090934A0180934901109261
:101010007C0083EA80937A0081E080937B0090914A
:101020008201992359F0109281001092850010924C
:10103000840080936E011092510188CF10926E014E
:101040001092480183CF80914801E82FF0E0EC58DE
:10105000FE4F9091820190838F5F809348018C3086
:1010600009F074CF109281001092850010928400D4
:1010700040936E011092510180917E0190917F0109
:101080009A83898384E791E00E945D09A981BA81EE
:10109000A817B90709F05ACFE0917D01E7FD0AC012
:1010A000E0910801F091090169E471E084E791E0C1
:1010B00009954CCF88E78E0F833030F053982398F2
:1010C0001092B4001092B300E058EB3008F03ECF1D
:1010D000F0E0EF5AF24F0C942D0A80916E008D7F54
:1010E00080936E0016BCE0E0F0E70995F0E0E0E0E8
:1010F000FCCF109216012ACF81E08093160126CFF3
:1011000085E0FBCF82E0F9CF80911601833009F4AE
:101110001DCF80911601843009F418CF539A239A79
:101120001092B4001092B30083E0E7CF8091740175
:10113000823009F457C0A0F5811149C08091160191
:10114000863099F56091830180EB90E00E94E60C77
:101150006091840181EB90E00E94E60C6091870130
:1011600085E090E00E94E60C6091730189E090E0D8
:101170000E94E60C609185018CE090E00E94E60CF4
:101180006091860184E190E00E94E60C53982398D8
:101190001092B4001092B30081E08093160105C054
:1011A000833091F1843009F441C080917401882327
:1011B00009F4CCCE80911601863009F4C7CE539A3B
:1011C000239A1092B4001092B30086E096CF8091DB
:1011D0007501909176019093840180938301109220
:1011E0001401E3CF9091140180917701913021F4A3
:1011F000909187019817C9F21092150191E0909390
:10120000140180938701D1CF9091140180917801CE
:10121000923021F490917301981739F210921501D0
:1012200092E09093140180937301BFCF2091140139
:1012300080917A0190917901233049F420918601BF
:10124000281305C020918501291709F4AECF10920B
:10125000150123E02093140190938501809386016A
:10126000A4CF80911601863081F0539A239A109270
:10127000B4001092B30080E00E941D061092140189
:101280001092150186E0809316012091740181E08F
:1012900090E002C0880F991F2A95E2F72091830100
:1012A0003091840182239323892B21F081E0809364
:1012B00014014CCE1092140149CEFC019C01265F12
:1012C0003F4F8FEF9FEF41918427082E8295807FBB
:1012D0008025092E982F82958F700826869598274D
:1012E0008927880F880F880F8025E217F30759F7A1
:1012F00008950FB6F894A4B1209147012A2B24B980
:1013000021E030914701203029F0000025B1232B46
:1013100025B904C000000000000000C0000000006B
:101320000000309525B1232325B92EEA2A95F1F73F
:101330002BEE30B735FF0AC0A4B930914701309584
:1013400025B1232325B90FBE80E0089500002A951A
:1013500081F721E030914701203029F0000025B1CC
:10136000232B25B904C000000000000000C00000CD
:1013700000000000309525B1232325B9000024E5A5
:101380002A95F1F7FC018CE0619170E0660F771F00
:10139000616072609AE041E050E09A0126233723B1
:1013A000232B30914701203029F0000025B1232B59
:1013B00025B904C000000000000000C000000000CB
:1013C0000000309525B1232325B9000021E52A9599
:1013D000F1F7440F551F9A9501F78A95A9F620B7A2
:1013E000206120BFA4B930914701309525B1232356
:1013F00025B90FBE81E008950E94260186E690E09F
:1014000090930901809308018FE590E09093070184
:101410008093060182E690E0909305018093040199
:1014200068EA70E084E890E00E943C0690E080E08A
:10143000089597FB072E16F4009407D077FD09D086
:101440000E94420A07FC05D03EF4909581959F4F7B
:101450000895709561957F4F0895EE0FFF1F0590D9
:10146000F491E02D0994A29FB001B39FC001A39F06
:10147000700D811D1124911DB29F700D811D1124CD
:10148000911D0895AA1BBB1B51E107C0AA1FBB1FDA
:10149000A617B70710F0A61BB70B881F991F5A9500
:1014A000A9F780959095BC01CD0108955058BB27B0
:1014B000AA270E946E0A0C94BF0B0E94B10B38F051
:1014C0000E94B80B20F039F49F3F19F426F40C94D5
:1014D000AE0B0EF4E095E7FB0C94A80BE92F0E94ED
:1014E000D00B58F3BA17620773078407950720F0EB
:1014F00079F4A6F50C94F20B0EF4E0950B2EBA2FAE
:10150000A02D0B01B90190010C01CA01A001112409
:10151000FF27591B99F0593F50F4503E68F11A16B5
:10152000F040A22F232F342F4427585FF3CF469546
:1015300037952795A795F0405395C9F77EF41F1668
:10154000BA0B620B730B840BBAF09150A1F0FF0F32
:10155000BB1F661F771F881FC2F70EC0BA0F621F1E
:10156000731F841F48F4879577956795B795F7950E
:101570009E3F08F0B0CF9395880F08F09927EE0FA3
:101580009795879508950E94D70A0C94BF0B0E94E7
:10159000B80B58F00E94B10B40F029F45F3F29F0DE
:1015A0000C94A80B51110C94F30B0C94AE0B0E94ED
:1015B000D00B68F39923B1F3552391F3951B550B89
:1015C000BB27AA2762177307840738F09F5F5F4F16
:1015D000220F331F441FAA1FA9F335D00E2E3AF055
:1015E000E0E832D091505040E695001CCAF72BD06D
:1015F000FE2F29D0660F771F881FBB1F26173707BE
:101600004807AB07B0E809F0BB0B802DBF01FF27EF
:1016100093585F4F3AF09E3F510578F00C94A80B19
:101620000C94F30B5F3FE4F3983ED4F386957795E3
:101630006795B795F7959F5FC9F7880F911D9695A8
:10164000879597F90895E1E0660F771F881FBB1F04
:10165000621773078407BA0720F0621B730B840BB1
:10166000BA0BEE1F88F7E09508950E943C0B689432
:10167000B1110C94F30B08950E94D80B88F09F577A
:1016800098F0B92F9927B751B0F0E1F0660F771FA6
:10169000881F991F1AF0BA95C9F714C0B13091F09C
:1016A0000E94F20BB1E008950C94F20B672F782F93
:1016B0008827B85F39F0B93FCCF386957795679561
:1016C000B395D9F73EF490958095709561957F4FCD
:1016D0008F4F9F4F0895E89409C097FB3EF4909573
:1016E0008095709561957F4F8F4F9F4F9923A9F0FB
:1016F000F92F96E9BB279395F6958795779567958A
:10170000B795F111F8CFFAF4BB0F11F460FF1BC0CD
:101710006F5F7F4F8F4F9F4F16C0882311F096E960
:1017200011C0772321F09EE8872F762F05C066230E
:1017300071F096E8862F70E060E02AF09A95660FC7
:10174000771F881FDAF7880F9695879597F9089580
:1017500097F99F6780E870E060E008959FEF80EC64
:10176000089500240A941616170618060906089507
:1017700000240A9412161306140605060895092E6D
:101780000394000C11F4882352F0BB0F40F4BF2BDC
:1017900011F460FF04C06F5F7F4F8F4F9F4F08951C
:1017A00057FD9058440F551F59F05F3F71F0479512
:1017B000880F97FB991F61F09F3F79F087950895F7
:1017C000121613061406551FF2CF4695F1DF08C016
:1017D000161617061806991FF1CF86957105610533
:1017E00008940895E894BB2766277727CB0197F9DB
:1017F00008950E940C0C0C94BF0B0E94B10B38F0A2
:101800000E94B80B20F0952311F00C94A80B0C94B7
:10181000AE0B11240C94F30B0E94D00B70F3959F28
:10182000C1F3950F50E0551F629FF001729FBB27D7
:10183000F00DB11D639FAA27F00DB11DAA1F649F73
:101840006627B00DA11D661F829F2227B00DA11D26
:10185000621F739FB00DA11D621F839FA00D611DAC
:10186000221F749F3327A00D611D231F849F600DCD
:10187000211D822F762F6A2F11249F5750409AF0F6
:10188000F1F088234AF0EE0FFF1FBB1F661F771F82
:10189000881F91505040A9F79E3F510580F00C944D
:1018A000A80B0C94F30B5F3FE4F3983ED4F38695BA
:1018B00077956795B795F795E7959F5FC1F7FE2BED
:1018C000880F911D9695879597F90895CF92DF928D
:1018D000EF92FF92CF93DF93CDB7DEB72A970FB683
:1018E000F894DEBF0FBECDBF89879A87A985BA85D8
:1018F0002D913D914D915C9129833A834B835C837B
:10190000232B242B252B41F424E239ED4BE557E022
:1019100029833A834B835C8369817A818B819C81A3
:101920002DE133EF41E050E00E94F40C69017A01AF
:10193000A7EAB1E49B01AC010E94130D69837A838D
:101940008B839C83ACEEB4EFA70196010E94210D1E
:101950009B01AC0189819A81AB81BC81820F931F6D
:10196000A41FB51FB7FF03C00197A109B048E985BF
:10197000FA8580839183A283B3839F772A960FB6DB
:10198000F894DEBF0FBECDBFDF91CF91FF90EF90F7
:10199000DF90CF9008950E94660C08958AE091E050
:1019A0000E94660C0895B0E0A0E080930A01909335
:1019B0000B01A0930C01B0930D010895F999FECF8E
:1019C00092BD81BDF89A992780B50895262FF9997F
:1019D000FECF1FBA92BD81BD20BD0FB6F894FA9A12
:1019E000F99A0FBE01960895052E97FB1EF40094F8
:1019F0000E940B0D57FD07D00E94260D07FC03D057
:101A00004EF40C940B0D50954095309521953F4F19
:101A10004F4F5F4F089590958095709561957F4FDA
:101A20008F4F9F4F08950E94330AA59F900DB49F3A
:101A3000900DA49F800D911D11240895B7FF0C9463
:101A4000130D0E94130D821B930B0895A1E21A2E11
:101A5000AA1BBB1BFD010DC0AA1FBB1FEE1FFF1F52
:101A6000A217B307E407F50720F0A21BB30BE40BA2
:101A7000F50B661F771F881F991F1A9469F76095E9
:101A80007095809590959B01AC01BD01CF010895A3
:101A9000F894FFCF4F06A606BC06E806EF06D2066E
:101AA000F2066D08A607A607760879087C08800864
:081AB000820884083109960840
:0E1AB800058202AA2501220121010100000081
:00000001FF
