:100000000C9446000C946F000C946F000C946F00DD
:100010000C946F000C946F000C9412020C946F00FF
:100020000C946F000C946F000C946F000C945207AA
:100030000C946F000C946F000C94B0050C946F003E
:100040000C946F000C946F000C946F000C946F0074
:100050000C946F000C946F000C946F000C946F075D
:100060000C946F000C946F005E06B506CB06F70685
:10007000FE06E10601077C08B507B5078508880874
:100080008B088F08910893084009A50811241FBE0A
:10009000CFEFD8E0DEBFCDBF14BE0FB6F894A89561
:1000A00080916000886180936000109260000FBEB4
:1000B00011E0A0E0B1E0EAE7FAE102C005900D929C
:1000C000AE30B107D9F721E0AEE0B1E001C01D923A
:1000D000A738B207E1F70E940B0A0C943B0D0C9471
:1000E00000008AE191E0089581E08093270108955E
:1000F000FC0180818093280181E080930E01FB0147
:1001000080819181A281B381809316019093170120
:10011000A0931801B0931901CB010E9411038093A1
:1001200026010895109223018091820180931A0183
:100130008AE191E00E946C0990932501809324014B
:100140008091820190918301029709F00895809136
:1001500011018130D9F381E0809311010E943C02AA
:1001600060918501809184010C9437028091270170
:10017000811139C020910201809182019091830107
:100180002817190609F008958091260190912801F9
:100190009130D1F180930F018091100140910101C4
:1001A00050E02091000130E090E0841B950B97FF18
:1001B00003C09195819591098217930724F7809147
:1001C0000F0190E0841B950B97FD1AC082179307CF
:1001D000D4F6809111018823B1F21092110160E0F0
:1001E00080E00C9437021092270181E00E942C06D7
:1001F00084E190E00E94290280E00E942C06BACFA0
:10020000919581959109E2CF80931001C7CF90918C
:100210001101981781F0809311018130C9F068F0C5
:10022000823079F0833041F40E943C026091720187
:1002300080E00C9437020895089560E080E00C940B
:1002400037020E943C0260E0809186010C943702E4
:100250000E943C0260918501809184010C943702D8
:10026000089590E080E008950895CF92DF92EF9294
:10027000FF921F93CF93DF93F89414B817B81AB86E
:1002800015B818B81BB8529A5A9A14BC85E085BDA7
:100290008FEF87BD82E080936E00109280001092F5
:1002A00081002FE83BE03093890020938800809301
:1002B0006F005398239891EA9093B0008093B10017
:1002C0001092B4001092B3008BE080BF83E0809363
:1002D0007F0086E080937C0083E880937A008091A1
:1002E0007A00806480937A0080917A0086FDFCCF4A
:1002F00010927C0083EA80937A0081E080937B00F7
:1003000081E090E00E94D10C8F3F11F08093660055
:1003100010925001C1E0C0932901C0936D01109269
:1003200047011092810180E990E00E94D10C8093F6
:10033000460180914601887311F0C09346011092E6
:100340007101109270018FEF90E090936F01809394
:100350006E0110924C0110924D0110924E011092BC
:100360004F0181E08093150182E49FE0909380012A
:1003700080937F0180EB90E00E94D10CC82F81EB2D
:1003800090E00E94D10CD82FD0938301C0938201BA
:1003900085E090E00E94D10C8093860189E090E096
:1003A0000E94D10C809372018CE090E00E94D10CED
:1003B0008093840184E190E00E94D10C80938501B8
:1003C00081E5E82E81E0F82E9AE2C92E91E0D92E3F
:1003D000C0E2D0E0CE010E94D10C182FCE010196D0
:1003E0000E94D10C912FF701819391937F01CE014F
:1003F000C0960E94D10C182FCE01C1960E94D10C3C
:10040000912FF601819391936F012296CC33D10500
:1004100009F77894DF91CF911F91FF90EF90DF90D3
:10042000CF9008950F920FB60F921F9211248F93C1
:100430000FB6F894A8958091600088618093600061
:10044000109260000FBE8F911F900F900FBE0F9003
:1004500018959C012115310509F408958FEC97E05A
:100460000197F1F700C0000021503109F3CF8093CC
:10047000B3006093B40008958FEF8093B30080932E
:10048000B4008FE090E00C9429028091500181111A
:100490001EC0F89487E080937C0083E880937A0004
:1004A00080917A00806480937A0080917A0086FD42
:1004B000FCCF809178009091790010927C0023EA23
:1004C00020937A0021E020937B00789408958FEFA9
:1004D0009FEF08958091500181111EC0F89488EC1F
:1004E00080937C0087E880937A0080917A00806412
:1004F00080937A0080917A0086FDFCCF809178000D
:100500009091790010927C0023EA20937A0021E0F8
:1005100020937B00789408958FEF9FEF0895CF93F9
:10052000DF9330E020E080E0E6E0F3E8C3EAD1E0EA
:10053000A1E0B0E090E8F894E0937C00F0937A00BA
:1005400040917A00406440937A0040917A0046FDE1
:10055000FCCF4091780050917900417050917A0021
:10056000506450937A0050917A0056FDFCCF609110
:1005700078007091790010927C00C0937A00D0933B
:100580007B0078946170461302C09150A1F6442319
:1005900039F0AD01022E01C0440F0A94EAF7842B12
:1005A0002F5F3F4F2830310529F6DF91CF91089515
:1005B0008091030198E0899F90011124982F922740
:1005C0002091120181E0820F80931201892F829580
:1005D0008695877089272695269582278093030123
:1005E000089580930301089580915001811116C0F0
:1005F000F89486E080937C0083E880937A00809171
:100600007A00806480937A0080917A0086FDFCCF26
:100610008091780090917900789408958FEF9FEF02
:1006200008953F924F925F926F927F928F929F9226
:10063000AF92BF92CF92DF92EF92FF920F931F93F0
:10064000CF93DF9300D000D000D00F92CDB7DEB7AC
:100650007C01DC0112960D911C910438B3E01B075C
:100660000CF0B6C180912A0190912B01801791075F
:1006700008F4ACC1ECE2F1E021E02D83819191918D
:100680008017910738F03D813F5F3D833E30B1F7E1
:100690004DE04D835D81852F90E0FC01EE0FFF1F43
:1006A000E65DFE4FC080D180880F991FFC01E85D98
:1006B000FE4F80819181D601A81BB90B9D0150E0AE
:1006C00040E029833A834B835C83CA01BD010E94C9
:1006D0007A0B9B01AC0169837A838B839C8369814C
:1006E0007A818B819C810E94660A4B015C01C80162
:1006F000012E000CAA0BBB0B89839A83AB83BC83AE
:10070000BC01CD010E947C0B562E672E782E9E8355
:10071000960150E040E029833A834B835C83CA0111
:10072000B6010E947A0B362E472E6C019D81892FCF
:1007300090E0B0E0A0E089839A83AB83BC83BC01E6
:10074000CD010E947A0B20E030E040E05FE3698356
:100750007A838B839C8369817A818B819C810E94BF
:10076000080C20E030E0A90169837A838B839C83A5
:1007700069817A818B819C810E94660A9401A5011E
:1007800069837A838B839C8369817A818B819C8145
:100790000E94080C9B01AC0139824A82CB82DC8228
:1007A00069817A818B819C810E94650A9B01AC01E1
:1007B00059826A827B82AE81AC8369817A818B8126
:1007C0009C810E94650A20E030E040E251E46983A8
:1007D0007A838B839C8369817A818B819C810E943F
:1007E000080C69837A838B839C8369817A818B81EE
:1007F0009C810E94440B6E837F8389829A82AB82A4
:10080000BC8269817A818B819C810E94440B6983BF
:100810007A838B839C838E819F8169817A810E94F8
:10082000280A6D830D3BB2E01B070CF497C1D7017A
:10083000CD90DC9080915101909152018C159D05D5
:1008400008F4C9C0E3E5F1E081E090E0882EE19092
:10085000F190EC14FD0408F4C3C001968E309105AC
:10086000A9F7BAE5BE83ED81EF3F09F4B6C0980160
:10087000110F440B550B29833A834B835C83CA01C8
:10088000B9010E947C0B7B018C019D81892F90E036
:10089000B0E0A0E089839A83AB83BC83BC01CD0127
:1008A0000E947A0BB62EC72ED82E9D839701A801E1
:1008B00060E070E081E694E40E94650A9B01AC016F
:1008C000B982CA82DB82AD81AC8369817A818B81F6
:1008D0009C810E94080CB62EC72ED82E9D833E8187
:1008E000232F30E050E040E029833A834B835C8340
:1008F000CA01B9010E947A0B4B01A82E9E8320E009
:1009000030E04FE254E4E982FA820B831C83698170
:100910007A818B819C810E94650A9B01AC0189824E
:100920009A82AB828E818C8369817A818B819C8152
:100930000E94080C9B01AC01B982CA82DB829D81B6
:100940009C8369817A818B819C810E94660A20E068
:1009500030E048E453E469837A838B839C83698124
:100960007A818B819C810E94D20A20E030E044E0B1
:1009700052E469837A838B839C8369817A818B813A
:100980009C810E94660A69837A838B839C83698138
:100990007A818B819C810E944B0B862F27960FB604
:1009A000F894DEBF0FBECDBFDF91CF911F910F91A5
:1009B000FF90EF90DF90CF90BF90AF909F908F907F
:1009C0007F906F905F904F903F9008951D822ACF47
:1009D000EFEFED832CCF1E8246CF8E818F5DDECF71
:1009E000880F991FFC01E15BFE4F80819181D70147
:1009F000A81BB90B9D0150E040E029833A834B834B
:100A00005C83CA01BD010E947A0B9B01AC01698322
:100A10007A838B839C8369817A818B819C810E94FC
:100A2000660A962EA72EB82E9E83C601DD0CAA0B51
:100A3000BB0B89839A83AB83BC83BC01CD010E942D
:100A40007C0B3B016C01970150E040E029833A8325
:100A50004B835C83CA01B7010E947A0B2B017C0196
:100A6000882D90E0B0E0A0E089839A83AB83BC83BB
:100A7000BC01CD010E947A0B20E030E040E05FE352
:100A800069837A838B839C8369817A818B819C8142
:100A90000E94080C20E030E0A90169837A838B83EF
:100AA0009C8369817A818B819C810E94660A292DB1
:100AB0003A2D4B2D5E8169837A838B839C83698178
:100AC0007A818B819C810E94080C9B01AC01498238
:100AD0005A82EB82FC8269817A818B819C810E949F
:100AE000650A9B01AC0169827A82CB82DC826981D2
:100AF0007A818B819C810E94650A20E030E040E28F
:100B000051E469837A838B839C8369817A818B81A9
:100B10009C810E94080C69837A838B839C83698102
:100B20007A818B819C810E94440B7B019982AA82ED
:100B3000BB829E819C8369817A818B819C810E948A
:100B4000440B69837A838B839C83C70169817A8193
:100B50000E94280A6E836F3F09F085CE8D813ECFBB
:100B60001F920F920FB60F9211242F933F934F9322
:100B70005F936F937F938F939F93AF93BF93EF9305
:100B8000FF93809170019091710120916E013091DD
:100B90006F01820F931F90937101809370018FEF0B
:100BA00090E090936F0180936E018FEF87BD8091ED
:100BB0004C0190914D01A0914E01B0914F010196D1
:100BC000A11DB11D80934C0190934D01A0934E0146
:100BD000B0934F0180915001811123C080917F011A
:100BE00090918001209170013091710182179307DB
:100BF000C0F4809115018430A1F4E0910601F091D8
:100C000007010995009769F00E9488098823D1F0AF
:100C1000E0910401F0910501099510927101109283
:100C20007001FF91EF91BF91AF919F918F917F9153
:100C30006F915F914F913F912F910F900FBE0F9049
:100C40001F9018950E94C10C9C01992790936F01E9
:100C500080936E0127BDE5CF80FF11C0559A81FFBB
:100C600010C0549A82FF0FC03B9A83FF0EC03A9A7D
:100C700084FF0DC03D9A85FF0CC03C9A089555989D
:100C8000EECF5498EFCF3B98F0CF3A98F1CF3D9804
:100C9000F2CF3C9808958C017B01D0E0CFEF84E047
:100CA000D82E98E1C92E29E2B22EE0911501E73045
:100CB000E0F7F0E0EC5CFF4F0C943C0AF89480B74E
:100CC000877F80BF80917A008F7780937A0014B8F5
:100CD00017B81AB815B818B81BB80FB6F894A89575
:100CE000C09260000FBEB09260008091600080648E
:100CF0008093600083B7817F846083BFF89483B75B
:100D0000816083BF7894889583B78E7F83BF789402
:100D100010925001529A5A9A80917A00806880937A
:100D20007A0087E592E00197F1F700C0000080B7F4
:100D3000886180BF8FE30E942C06EFE1FEE43197CB
:100D4000F1F700C0000080915001882361F083E03A
:100D50000E942C06FFEF20E782E0F1502040804007
:100D6000E1F700C0000080E01EC08CE00E942C066D
:100D7000EFECF7E03197F1F700C0000080E00E944F
:100D80002C06FFEF21EE84E0F15020408040E1F797
:100D900000C000008ACF0E94F4029C012B3A92E02E
:100DA000390724F08CE00E942C067FCF80E329389D
:100DB000E2E03E07C4F78FE027363240A4F783E035
:100DC000F2CF4899D0CF81E00E942C068FEC97E0BB
:100DD0000197F1F700C0000080E00E942C069FEF11
:100DE000E1EEF4E09150E040F040E1F7D1CFD111D5
:100DF00002C0F8010995D0921501D1E0F7010995DB
:100E000054CF80911301811107C01092B30010924A
:100E1000B4001092140149CF9091130180911401F4
:100E2000981709F442CF80911301809314018091A7
:100E30001301813089F4C093B3001092B4008FE2A3
:100E400095E70197F1F700C000008091860180933B
:100E5000B3001092B40029CF809113011092B30017
:100E6000C093B400823069F4EFE2F5E73197F1F70F
:100E700000C00000809172011092B3008093B40012
:100E800014CFC093B300C093B4008FE295E70197ED
:100E9000F1F700C00000809185019091840190934A
:100EA000B300ECCF8F931F9280E0182E9F93109287
:100EB0008100109285001092840081E080932901C6
:100EC00080936D011092500110927C0093EA9093F0
:100ED0007A0080937B009F911F908F9118951F92AD
:100EE0000F920FB60F9211240F931F932F933F93DE
:100EF0004F935F936F937F938F939F93AF93BF9322
:100F0000EF93FF93CF93DF9300D000D0CDB7DEB740
:100F1000209184003091850041E040935001809100
:100F200029018823D9F11092850010928400409302
:100F30008100109281011092290180916D01882316
:100F4000A1F080917A0086FDFCCF8091780090918D
:100F5000790090934B0180934A0181E080937C005B
:100F600093EA90937A0080937B000F900F900F90FC
:100F70000F90DF91CF91FF91EF91BF91AF919F9132
:100F80008F917F916F915F914F913F912F911F9121
:100F90000F910F900FBE0F901F901895C9018758A1
:100FA000910984379940A0F0109281001092850039
:100FB000109284004093290140936D0110925001DA
:100FC00010927C0083EA80937A0040937B00CDCF1F
:100FD00026583109A4EFB0E00E94420A69837A835F
:100FE0008B839C838C0122273327883068F481E02F
:100FF00090E09C0101C0220F0A95EAF780918101DF
:10100000822B80938101B1CF4093290180916D01A2
:10101000882341F180917A0086FDFCCF8091780091
:1010200090917900909349018093480110927C003F
:1010300083EA80937A0081E080937B009091810124
:10104000992359F01092810010928500109284002B
:1010500080936D011092500188CF10926D01109213
:10106000470183CF80914701E82FF0E0ED58FE4F14
:101070009091810190838F5F809347018C3009F0BC
:1010800074CF1092810010928500109284004093DA
:101090006D011092500180917D0190917E019A83A3
:1010A000898383E791E00E946C09A981BA81A8171E
:1010B000B90709F05ACFE0917C01E7FD0AC0E09141
:1010C0000801F091090168E471E083E791E0099576
:1010D0004CCF88E78E0F833030F0539823981092CE
:1010E000B4001092B300E058EB3008F03ECFF0E0CF
:1010F000E55CFF4F0C943C0A80916E008D7F8093DD
:101100006E0016BCE0E0F0E70995F0E0E0E0FCCF0F
:10111000109215012ACF81E08093150126CF85E03A
:10112000FBCF82E0F9CF80911501833009F41DCF08
:1011300080911501843009F418CF539A239A1092A4
:10114000B4001092B30083E0E7CF80917301823046
:1011500009F457C0A0F5811149C08091150186306E
:1011600099F56091820180EB90E00E94D90C60912A
:10117000830181EB90E00E94D90C6091860185E0AB
:1011800090E00E94D90C6091720189E090E00E9489
:10119000D90C609184018CE090E00E94D90C6091A0
:1011A000850184E190E00E94D90C53982398109215
:1011B000B4001092B30081E08093150105C0833024
:1011C00091F1843009F441C080917301882309F4BE
:1011D000CCCE80911501863009F4C7CE539A239A5C
:1011E0001092B4001092B30086E096CF8091740103
:1011F0009091750190938301809382011092130165
:10120000E3CF9091130180917601913021F4909178
:1012100086019817C9F21092140191E0909313017E
:1012200080938601D1CF9091130180917701923004
:1012300021F490917201981739F21092140192E002
:101240009093130180937201BFCF2091130180917D
:10125000790190917801233049F420918501281378
:1012600005C020918401291709F4AECF1092140112
:1012700023E0209313019093840180938501A4CFF0
:1012800080911501863081F0539A239A1092B40010
:101290001092B30080E00E942C061092130110926D
:1012A000140186E0809315012091730181E090E0A4
:1012B00002C0880F991F2A95E2F720918201309190
:1012C000830182239323892B21F081E080931301F2
:1012D0004CCE1092130149CEFC019C01265F3F4F7A
:1012E0008FEF9FEF41918427082E8295807F802584
:1012F000092E982F82958F70082686959827892722
:10130000880F880F880F8025E217F30759F7089593
:101310000FB6F894A4B1209146012A2B24B921E0FC
:1013200030914601203029F0000025B1232B25B94A
:1013300004C000000000000000C000000000000029
:10134000309525B1232325B92EEA2A95F1F72BEE06
:1013500030B735FF0AC0A4B930914601309525B1A8
:10136000232325B90FBE80E0089500002A9581F758
:1013700021E030914601203029F0000025B1232BD7
:1013800025B904C000000000000000C000000000FB
:101390000000309525B1232325B9000024E52A95C6
:1013A000F1F7FC018CE0619170E0660F771F6160DE
:1013B00072609AE041E050E09A0126233723232B04
:1013C00030914601203029F0000025B1232B25B9AA
:1013D00004C000000000000000C000000000000089
:1013E000309525B1232325B9000021E52A95F1F791
:1013F000440F551F9A9501F78A95A9F620B72061E9
:1014000020BFA4B930914601309525B1232325B9D9
:101410000FBE81E008950E94350188E790E0909327
:1014200009018093080181E790E090930701809380
:10143000060184E790E0909305018093040166EB38
:1014400070E082E990E00E944B0690E080E0089511
:1014500097FB072E16F4009407D077FD09D00E9461
:10146000510A07FC05D03EF4909581959F4F089551
:10147000709561957F4F0895EE0FFF1F0590F491D1
:10148000E02D0994A29FB001B39FC001A39F700DEE
:10149000811D1124911DB29F700D811D1124911D7C
:1014A0000895AA1BBB1B51E107C0AA1FBB1FA617AB
:1014B000B70710F0A61BB70B881F991F5A95A9F7FD
:1014C00080959095BC01CD0108955058BB27AA275F
:1014D0000E947D0A0C94CE0B0E94C00B38F00E9433
:1014E000C70B20F039F49F3F19F426F40C94BD0B80
:1014F0000EF4E095E7FB0C94B70BE92F0E94DF0B8D
:1015000058F3BA17620773078407950720F079F438
:10151000A6F50C94010C0EF4E0950B2EBA2FA02D1D
:101520000B01B90190010C01CA01A0011124FF2790
:10153000591B99F0593F50F4503E68F11A16F0408B
:10154000A22F232F342F4427585FF3CF469537958A
:101550002795A795F0405395C9F77EF41F16BA0B4F
:10156000620B730B840BBAF09150A1F0FF0FBB1FFD
:10157000661F771F881FC2F70EC0BA0F621F731F46
:10158000841F48F4879577956795B795F7959E3FA3
:1015900008F0B0CF9395880F08F09927EE0F979534
:1015A000879508950E94E60A0C94CE0B0E94C70B03
:1015B00058F00E94C00B40F029F45F3F29F00C94D2
:1015C000B70B51110C94020C0C94BD0B0E94DF0B55
:1015D00068F39923B1F3552391F3951B550BBB2762
:1015E000AA2762177307840738F09F5F5F4F220FA7
:1015F000331F441FAA1FA9F335D00E2E3AF0E0E89E
:1016000032D091505040E695001CCAF72BD0FE2FE7
:1016100029D0660F771F881FBB1F2617370748077B
:10162000AB07B0E809F0BB0B802DBF01FF27935833
:101630005F4F3AF09E3F510578F00C94B70B0C9435
:10164000020C5F3FE4F3983ED4F386957795679557
:10165000B795F7959F5FC9F7880F911D9695879568
:1016600097F90895E1E0660F771F881FBB1F621787
:1016700073078407BA0720F0621B730B840BBA0B45
:10168000EE1F88F7E09508950E944B0B6894B11106
:101690000C94020C08950E94E70B88F09F5798F075
:1016A000B92F9927B751B0F0E1F0660F771F881F67
:1016B000991F1AF0BA95C9F714C0B13091F00E9481
:1016C000010CB1E008950C94010C672F782F882746
:1016D000B85F39F0B93FCCF3869577956795B395A8
:1016E000D9F73EF490958095709561957F4F8F4F17
:1016F0009F4F0895E89409C097FB3EF4909580951C
:10170000709561957F4F8F4F9F4F9923A9F0F92FC7
:1017100096E9BB279395F695879577956795B79545
:10172000F111F8CFFAF4BB0F11F460FF1BC06F5F2B
:101730007F4F8F4F9F4F16C0882311F096E911C03D
:10174000772321F09EE8872F762F05C0662371F05E
:1017500096E8862F70E060E02AF09A95660F771F72
:10176000881FDAF7880F9695879597F9089597F966
:101770009F6780E870E060E008959FEF80EC089537
:1017800000240A9416161706180609060895002460
:101790000A9412161306140605060895092E0394DA
:1017A000000C11F4882352F0BB0F40F4BF2B11F44E
:1017B00060FF04C06F5F7F4F8F4F9F4F089557FDAD
:1017C0009058440F551F59F05F3F71F04795880FAF
:1017D00097FB991F61F09F3F79F087950895121646
:1017E00013061406551FF2CF4695F1DF08C01616F2
:1017F00017061806991FF1CF8695710561050894A3
:101800000895E894BB2766277727CB0197F90895B9
:101810000E941B0C0C94CE0B0E94C00B38F00E944F
:10182000C70B20F0952311F00C94B70B0C94BD0B53
:1018300011240C94020C0E94DF0B70F3959FC1F3EE
:10184000950F50E0551F629FF001729FBB27F00D6E
:10185000B11D639FAA27F00DB11DAA1F649F6627C3
:10186000B00DA11D661F829F2227B00DA11D621F12
:10187000739FB00DA11D621F839FA00D611D221FCC
:10188000749F3327A00D611D231F849F600D211DB0
:10189000822F762F6A2F11249F5750409AF0F1F033
:1018A00088234AF0EE0FFF1FBB1F661F771F881F9C
:1018B00091505040A9F79E3F510580F00C94B70B12
:1018C0000C94020C5F3FE4F3983ED4F38695779531
:1018D0006795B795F795E7959F5FC1F7FE2B880F42
:1018E000911D9695879597F908958F929F92AF9243
:1018F000BF92CF92DF92EF92FF92CF93DF93EC01F2
:10190000688179818A819B816115710581059105C5
:1019100021F464E279ED8BE597E02DE133EF41E0CE
:1019200050E00E94E70C49015A019B01AC01A7EA73
:10193000B1E40E94060D6B017C01ACEEB4EFA50191
:1019400094010E94140DDC01CB018C0D9D1DAE1D78
:10195000BF1DB7FF03C00197A109B04888839983D1
:10196000AA83BB839F77DF91CF91FF90EF90DF90A9
:10197000CF90BF90AF909F908F9008950E94750C6C
:1019800008958AE091E00E94750C0895B0E0A0E00F
:1019900080930A0190930B01A0930C01B0930D0169
:1019A0000895F999FECF92BD81BDF89A992780B527
:1019B0000895262FF999FECF1FBA92BD81BD20BD93
:1019C0000FB6F894FA9AF99A0FBE01960895052E6B
:1019D00097FB1EF400940E94FE0C57FD07D00E9456
:1019E000190D07FC03D04EF40C94FE0C5095409555
:1019F000309521953F4F4F4F5F4F089590958095BB
:101A0000709561957F4F8F4F9F4F08950E94420AB6
:101A1000A59F900DB49F900DA49F800D911D112442
:101A20000895B7FF0C94060D0E94060D821B930BC0
:101A30000895A1E21A2EAA1BBB1BFD010DC0AA1F0F
:101A4000BB1FEE1FFF1FA217B307E407F50720F027
:101A5000A21BB30BE40BF50B661F771F881F991FA2
:101A60001A9469F760957095809590959B01AC01EB
:0A1A7000BD01CF010895F894FFCFE7
:0E1A7A00058202AA3401310130010100000092
:00000001FF
